:020000020000FC
:020000009AC2A2
:0200340078C290
:100040004CC2070505050700040404040400070466
:10005000070107000704070407000505070404005B
:100060000701070407000701070507000704040448
:100070000400070507050700070507040700020538
:10008000070505000305030503000601010106003D
:10009000030505050300070103010700070103012C
:1000A0000100060105050600050507050500070214
:1000B0000202070007040405060005050305050004
:1000C00001010101070005070705050003050505F6
:1000D00005000205050502000305030101000205F4
:1000E00005070600030503050500070107040700CF
:1000F00007020202020005050505070005050505C2
:1001000002000505050707000505020505000505B0
:1001100002020200070402010700010101000100C0
:10012000060402000200239A2B98259A2D98249AFF
:100130002C98089506E4C0E0D1E0A9920A95E9F769
:100140000895F0E0E2E406E030E0D09EE00D10F427
:1001500001E0F00F0AE01B2D130F17302CF01750A1
:10016000109F15E0010E01C0109F0A2D06950695FF
:100170000695000DC02FD1E01A2D177050E0259183
:100180004881012F103039F0550F221F10F45160B3
:1001900088940A95C9F7C0FC05C0421B49930881A1
:1001A000051B04C0422B49930881052B0883339516
:1001B000353081F608950AE01B2D17302CF01750CA
:1001C000109F15E0010E01C0B09E0A2D0695069500
:1001D0000695000DC02FD1E03D2D1A2D1770175038
:1001E0001195088120E8103039F02695313011F052
:1001F0003A9520681A95F8CFC0FC03C020950223D9
:1002000001C0022B099318E0313059F70895D3DF6C
:10021000B394EA94E1F708950AE01B2D17302CF00F
:100220001750109F15E0010E01C0B09E0A2D0695D3
:1002300006950695000DC02FD1E008811A2D177084
:1002400021E019F0220F1A95FCCF2095C0FC02C0C6
:10025000022303C0009502230095088308950EE051
:10026000A02E02E0B02E01E0C02E0CE0D02E09E05E
:10027000E02ECDDF0FE0A02E03E0B02E00E0C02E78
:100280000AE0D02E07E0E02EC2DF00E1A02E04E05D
:10029000B02E01E0C02E00E1D02E53DF04E1A02EED
:1002A00004E0B02E01E0C02E08E1D02E4ADF08E1C4
:1002B000A02E04E0B02E01E0C02E04E2D02E41DFDB
:1002C000089501E0A02E05E0B02E01E0C02E0BE065
:1002D000D02E37DF05E0A02E05E0B02E01E0C02EC5
:1002E0000AE0D02E2EDF09E0A02E05E0B02E01E0BE
:1002F000C02E0DE1D02E25DF0DE0A02E05E0B02EA2
:1003000001E0C02E0DE1D02E1CDF01E1A02E05E0A2
:10031000B02E01E0C02E05E1D02E13DF05E1A02EA6
:1003200005E0B02E01E0C02E0EE0D02E0ADF09E17C
:10033000A02E05E0B02E01E0C02E0CE1D02E01DF92
:100340000DE1A02E05E0B02E01E0C02E01E1D02E7F
:10035000F8DE01E2A02E05E0B02E01E0C02E02E1A1
:10036000D02EEFDE05E2A02E05E0B02E01E0C02E7B
:1003700009E1D02EE6DE00E0A02E03E0B02E01E081
:10038000C02E08E2D02E17DF00E0A02E0BE0B02E2A
:1003900001E0C02E08E2D02E0EDF089500E020E03C
:1003A0005C985D985E985F98549A559A569A579AB9
:1003B000589A599A5A9A5B9A5098519852985398C9
:1003C000489B13D0499B0ED04A9B09D04B9B04D02D
:1003D00020E0021769F00DC021E0020F089522E02D
:1003E000020F089524E0020F089528E0020F0895F7
:1003F000D5CF589859985A985B98509A519A529AD2
:10040000539A5C9A5D9A5E9A5F9A5498559856985A
:1004100057984C9B10D04D9B0BD04E9B06D04F9BBA
:1004200001D00CC020E1020F089520E2020F0895D0
:1004300020E4020F089520E8020F089500FF08C08D
:1004400004FD2CD005FD2BD006FD2AD007FD2ED0B3
:1004500001FF08C004FD1FD005FD1ED006FD1DD004
:1004600007FD23D002FF08C004FD12D005FD11D006
:1004700006FD10D007FD18D003FF90CF04FD11D06A
:1004800005FD05D006FD0ED007FD0DD00895089599
:100490000895089508950895089508950895089574
:1004A000089508950895089508950895089504E01D
:1004B00005BD07EA202E26BC01E000936E000895DA
:1004C00003E0009381000EE90093850008E50093A6
:1004D000840001E000936F00089526BC2C9A8A9452
:1004E00031F497E0892E90E4992EA6E4B1E09AE0E9
:1004F000792E5E9098E0692E2B98551C08F42B9A63
:100500002D982D9A6A94C1F77A9499F798E0692EFC
:1005100088942B98991C08F42B9A2D982D9A6A94FC
:10052000C1F72C9818959EE99093850098E59093D3
:0C05300084007A941895F7DDBADF789407
:00000001FF
